{
  "_format": "hh-sol-artifact-1",
  "contractName": "Transactions",
  "sourceName": "contracts/Transaction.sol",
  "abi": [
    {
      "inputs": [
        {
          "internalType": "uint256",
          "name": "index",
          "type": "uint256"
        }
      ],
      "name": "getTransaction",
      "outputs": [
        {
          "internalType": "address",
          "name": "",
          "type": "address"
        },
        {
          "internalType": "uint256",
          "name": "",
          "type": "uint256"
        }
      ],
      "stateMutability": "view",
      "type": "function"
    },
    {
      "inputs": [],
      "name": "getTransactionCount",
      "outputs": [
        {
          "internalType": "uint256",
          "name": "",
          "type": "uint256"
        }
      ],
      "stateMutability": "view",
      "type": "function"
    },
    {
      "inputs": [
        {
          "internalType": "uint256",
          "name": "",
          "type": "uint256"
        }
      ],
      "name": "transactionAddresses",
      "outputs": [
        {
          "internalType": "address",
          "name": "",
          "type": "address"
        }
      ],
      "stateMutability": "view",
      "type": "function"
    },
    {
      "inputs": [
        {
          "internalType": "uint256",
          "name": "",
          "type": "uint256"
        }
      ],
      "name": "transactionAmounts",
      "outputs": [
        {
          "internalType": "uint256",
          "name": "",
          "type": "uint256"
        }
      ],
      "stateMutability": "view",
      "type": "function"
    },
    {
      "inputs": [],
      "name": "transactionCount",
      "outputs": [
        {
          "internalType": "uint256",
          "name": "",
          "type": "uint256"
        }
      ],
      "stateMutability": "view",
      "type": "function"
    },
    {
      "inputs": [
        {
          "internalType": "address payable",
          "name": "recipient",
          "type": "address"
        }
      ],
      "name": "transfer",
      "outputs": [],
      "stateMutability": "payable",
      "type": "function"
    }
  ],
  "bytecode": "0x608060405234801561001057600080fd5b506105f1806100206000396000f3fe6080604052600436106100555760003560e01c80630fb55bee1461005a5780631a695230146100975780632cd6958f146100b35780632e7700f0146100f057806333ea3dc81461011b578063b77bf60014610159575b600080fd5b34801561006657600080fd5b50610081600480360381019061007c9190610380565b610184565b60405161008e91906103ee565b60405180910390f35b6100b160048036038101906100ac9190610447565b6101b7565b005b3480156100bf57600080fd5b506100da60048036038101906100d59190610380565b610286565b6040516100e79190610483565b60405180910390f35b3480156100fc57600080fd5b5061010561029e565b6040516101129190610483565b60405180910390f35b34801561012757600080fd5b50610142600480360381019061013d9190610380565b6102a8565b60405161015092919061049e565b60405180910390f35b34801561016557600080fd5b5061016e61033f565b60405161017b9190610483565b60405180910390f35b60006020528060005260406000206000915054906101000a900473ffffffffffffffffffffffffffffffffffffffff1681565b8073ffffffffffffffffffffffffffffffffffffffff166108fc349081150290604051600060405180830381858888f193505050501580156101fd573d6000803e3d6000fd5b5080600080600254815260200190815260200160002060006101000a81548173ffffffffffffffffffffffffffffffffffffffff021916908373ffffffffffffffffffffffffffffffffffffffff16021790555034600160006002548152602001908152602001600020819055506002600081548092919061027e906104f6565b919050555050565b60016020528060005260406000206000915090505481565b6000600254905090565b60008060025483106102ef576040517f08c379a00000000000000000000000000000000000000000000000000000000081526004016102e69061059b565b60405180910390fd5b60008084815260200190815260200160002060009054906101000a900473ffffffffffffffffffffffffffffffffffffffff16600160008581526020019081526020016000205491509150915091565b60025481565b600080fd5b6000819050919050565b61035d8161034a565b811461036857600080fd5b50565b60008135905061037a81610354565b92915050565b60006020828403121561039657610395610345565b5b60006103a48482850161036b565b91505092915050565b600073ffffffffffffffffffffffffffffffffffffffff82169050919050565b60006103d8826103ad565b9050919050565b6103e8816103cd565b82525050565b600060208201905061040360008301846103df565b92915050565b6000610414826103ad565b9050919050565b61042481610409565b811461042f57600080fd5b50565b6000813590506104418161041b565b92915050565b60006020828403121561045d5761045c610345565b5b600061046b84828501610432565b91505092915050565b61047d8161034a565b82525050565b60006020820190506104986000830184610474565b92915050565b60006040820190506104b360008301856103df565b6104c06020830184610474565b9392505050565b7f4e487b7100000000000000000000000000000000000000000000000000000000600052601160045260246000fd5b60006105018261034a565b91507fffffffffffffffffffffffffffffffffffffffffffffffffffffffffffffffff8203610533576105326104c7565b5b600182019050919050565b600082825260208201905092915050565b7f496e76616c6964207472616e73616374696f6e20696e64657800000000000000600082015250565b600061058560198361053e565b91506105908261054f565b602082019050919050565b600060208201905081810360008301526105b481610578565b905091905056fea26469706673582212205d1471cdcb039c69eb8e2fb10da6fab140effd34a50fb253a2ea030201cf14e164736f6c63430008120033",
  "linkReferences": {},
  "deployedLinkReferences": {}
}